HI-TECH Software C Compiler 

Linker command line:

--edf=C:\Program Files (x86)\HI-TECH Software\PICC\9.80\dat\en_msgs.txt -cs \
  -h+Function_Pointer.sym -z -Q16F887 -ol.obj -MFunction_Pointer.map -E1 \
  -ACONST=00h-0FFhx32 -ACODE=00h-07FFhx4 -ASTRCODE=00h-01FFFh \
  -AENTRY=00h-0FFhx32 -ASTRING=00h-0FFhx32 -ABANK0=020h-06Fh \
  -ABANK1=0A0h-0EFh -ABANK2=0110h-016Fh -ABANK3=0190h-01EFh \
  -ARAM=020h-06Fh,0A0h-0EFh,0110h-016Fh,0190h-01EFh \
  -AABS1=020h-07Fh,0A0h-0EFh,0110h-016Fh,0190h-01EFh -ACOMMON=070h-07Fh \
  -ASFR0=00h-01Fh -ASFR1=080h-09Fh -ASFR2=0100h-010Fh -ASFR3=0180h-018Fh \
  -preset_vec=00h,intentry,init,end_init -ppowerup=CODE -pfunctab=CODE \
  -ACONFIG=02007h-02008h -pconfig=CONFIG -DCONFIG=2 -AIDLOC=02000h-02003h \
  -pidloc=IDLOC -DIDLOC=2 -AEEDATA=00h-0FFh/02100h -peeprom_data=EEDATA \
  -DEEDATA=2 -DCODE=2 -DSTRCODE=2 -DSTRING=2 -DCONST=2 -DENTRY=2 -k \
  startup.obj Function_Pointer.obj 

Object code version is 3.10

Machine type is 16F887



                Name                               Link     Load   Length Selector   Space Scale
startup.obj     end_init                              0        0        3        0       0
Function_Pointer.obj
                functab                             700      700       24        E       0
                text302                             554      554        2      AA8       0
                text301                             5C9      5C9       43      B92       0
                text300                             597      597       19      B2E       0
                text299                             56B      56B        6      AD6       0
                text298                             7CA      7CA       1D        E       0
                text297                             577      577        8      AEE       0
                text296                             5B0      5B0       19      B60       0
                text295                             556      556        4      AAC       0
                text294                             55A      55A        4      AB4       0
                text293                             57F      57F        C      AFE       0
                text292                             7E7      7E7       19        E       0
                text291                             55E      55E        4      ABC       0
                text290                             562      562        4      AC4       0
                text289                             58B      58B        C      B16       0
                text288                             566      566        5      ACC       0
                text287                             724      724       A6        E       0
                maintext                            60C      60C       F4      C18       0
                cstackBANK0                          20       20       31       20       1
                cstackCOMMON                         70       70        C       70       1
                bssCOMMON                            7C       7C        2       70       1
                cinit                               571      571        6      AE2       0
                strings                               3        3       37        6       0

TOTAL           Name                               Link     Load   Length     Space
        CLASS   CONST          

        CLASS   CODE           
                end_init                              0        0        3         0
                functab                             700      700       24         0
                text302                             554      554        2         0
                text301                             5C9      5C9       43         0
                text300                             597      597       19         0
                text299                             56B      56B        6         0
                text298                             7CA      7CA       1D         0
                text297                             577      577        8         0
                text296                             5B0      5B0       19         0
                text295                             556      556        4         0
                text294                             55A      55A        4         0
                text293                             57F      57F        C         0
                text292                             7E7      7E7       19         0
                text291                             55E      55E        4         0
                text290                             562      562        4         0
                text289                             58B      58B        C         0
                text288                             566      566        5         0
                text287                             724      724       A6         0
                maintext                            60C      60C       F4         0
                cinit                               571      571        6         0

        CLASS   STRCODE        

        CLASS   ENTRY          

        CLASS   STRING         
                strings                               3        3       37         0

        CLASS   BANK0          
                cstackBANK0                          20       20       31         1

        CLASS   BANK1          

        CLASS   BANK2          

        CLASS   BANK3          

        CLASS   RAM            

        CLASS   ABS1           
                abs_s1                               7E       7E        2         1

        CLASS   COMMON         
                cstackCOMMON                         70       70        C         1
                bssCOMMON                            7C       7C        2         1

        CLASS   SFR0           

        CLASS   SFR1           

        CLASS   SFR2           

        CLASS   SFR3           

        CLASS   CONFIG         

        CLASS   IDLOC          

        CLASS   EEDATA         



SEGMENTS        Name                           Load    Length   Top    Selector   Space  Class     Delta

                reset_vec                      000000  000003  000003         0       0  CODE        2
                strings                        000003  000037  00003A         6       0  STRING      2
                cstackBANK0                    000020  000031  000051        20       1  BANK0       1
                cstackCOMMON                   000070  00000E  00007E        70       1  COMMON      1
                text302                        000554  000002  000556       AA8       0  CODE        2
                text295                        000556  000004  00055A       AAC       0  CODE        2
                text294                        00055A  000004  00055E       AB4       0  CODE        2
                text291                        00055E  000004  000562       ABC       0  CODE        2
                text290                        000562  000004  000566       AC4       0  CODE        2
                text288                        000566  000005  00056B       ACC       0  CODE        2
                text299                        00056B  000006  000571       AD6       0  CODE        2
                cinit                          000571  000006  000577       AE2       0  CODE        2
                text297                        000577  000008  00057F       AEE       0  CODE        2
                text293                        00057F  00000C  00058B       AFE       0  CODE        2
                text289                        00058B  00000C  000597       B16       0  CODE        2
                text300                        000597  000019  0005B0       B2E       0  CODE        2
                text296                        0005B0  000019  0005C9       B60       0  CODE        2
                text301                        0005C9  000043  00060C       B92       0  CODE        2
                maintext                       00060C  0000F4  000700       C18       0  CODE        2
                functab                        000700  000100  000800         E       0  CODE        2


UNUSED ADDRESS RANGES

        Name                Unused          Largest block    Delta
        BANK0            0051-006F             1F           1
        BANK1            00A0-00EF             50           1
        BANK2            0110-016F             60           1
        BANK3            0190-01EF             60           1
        CODE             003A-0553            51A           2
                         0800-1FFF            800
        CONFIG           2007-2008              2           2
        CONST            003A-0553            100           2
                         0800-1FFF            100
        EEDATA           2100-21FF            100           2
        ENTRY            003A-0553            100           2
                         0800-1FFF            100
        IDLOC            2000-2003              4           2
        RAM              0051-006F             1F           1
                         00A0-00EF             50
                         0110-016F             60
                         0190-01EF             60
        SFR0             0000-001F             20           1
        SFR1             0080-009F             20           1
        SFR2             0100-010F             10           1
        SFR3             0180-018F             10           1
        STRCODE          003A-0553            51A           2
                         0800-1FFF           1800
        STRING           003A-0553            100           2
                         0800-1FFF            100

                                  Symbol Table

??_FunctPtr2                              cstackCOMMON 0078
??_NETM_IMAP_DCM_STATUS_C_Implausi        cstackCOMMON 0075
??_NETM_IMAP_ETM_LTM_Implausible          cstackCOMMON 0070
??___bmul                                 cstackCOMMON 0071
??_copy                                   cstackCOMMON 0070
??_copy_structure_as_parameter            cstackBANK0  0020
??_cubed                                  cstackCOMMON 0075
??_cubedFunc1                             cstackCOMMON 0075
??_decrement                              cstackCOMMON 0075
??_decrementFunc1                         cstackCOMMON 0075
??_increment                              cstackCOMMON 0075
??_incrementFunc1                         cstackCOMMON 0075
??_main                                   cstackBANK0  0030
??_my_callback                            cstackCOMMON 0070
??_register_callback                      cstackCOMMON 0070
??_square                                 cstackCOMMON 0075
??_squareFunc1                            cstackCOMMON 0075
?_FunctPtr2                               cstackCOMMON 0070
?_NETM_IMAP_DCM_STATUS_C_Implausi         cstackCOMMON 0074
?_NETM_IMAP_ETM_LTM_Implausible           cstackCOMMON 0070
?___bmul                                  cstackCOMMON 0070
?_copy                                    cstackCOMMON 0070
?_copy_structure_as_parameter             cstackCOMMON 0070
?_cubed                                   cstackCOMMON 0074
?_decrement                               cstackCOMMON 0074
?_increment                               cstackCOMMON 0074
?_main                                    cstackCOMMON 0070
?_my_callback                             cstackCOMMON 0070
?_register_callback                       cstackCOMMON 0070
?_square                                  cstackCOMMON 0074
FunctPtr2@NETM_BitMsgPos                  cstackBANK0  0020
FunctPtr2@NETM_MsgMissRecoveryFunc        cstackBANK0  0022
FunctPtr2@NETM_MsgType                    cstackBANK0  0023
FunctPtr2@NETM_NodeNetId                  cstackBANK0  0025
FunctPtr2@NETM_msg_cfgLocal_ptr           cstackBANK0  0026
FunctPtr2@NETM_msg_cfg_TestVar            cstackBANK0  0029
FunctPtr2@i                               cstackBANK0  0028
NETM_IMAP_DCM_STATUS_C_Implausi@Status    cstackCOMMON 0074
NETM_IMAP_ETM_LTM_Implausible@Status      cstackCOMMON 0070
_FunctPtr2                                text287      0724
_FunctPtr2$576                            cstackBANK0  0024
_IMAP_ImplausibilityControl               bssCOMMON    007C
_NETM_IMAP_DCM_STATUS_C_Implausi          text288      0566
_NETM_IMAP_ETM_LTM_Implausible            text299      056B
_NETM_msg_cfg                             strings      0021
_TWODARRAY                                strings      0013
__Habs1                                   abs1         0000
__Hbank0                                  bank0        0000
__Hbank1                                  bank1        0000
__Hbank2                                  bank2        0000
__Hbank3                                  bank3        0000
__HbssCOMMON                              bssCOMMON    0000
__Hcinit                                  cinit        0000
__Hclrtext                                clrtext      0000
__Hcode                                   code         0000
__Hcommon                                 common       0000
__Hconfig                                 config       0000
__HcstackBANK0                            cstackBANK0  0000
__HcstackCOMMON                           cstackCOMMON 0000
__Heeprom_data                            eeprom_data  0000
__Hend_init                               end_init     0003
__Hfunctab                                functab      0724
__Hidloc                                  idloc        0000
__Hinit                                   init         0000
__Hintentry                               intentry     0000
__Hmaintext                               maintext     0000
__Hpowerup                                powerup      0000
__Hram                                    ram          0000
__Hreset_vec                              reset_vec    0000
__Hsfr0                                   sfr0         0000
__Hsfr1                                   sfr1         0000
__Hsfr2                                   sfr2         0000
__Hsfr3                                   sfr3         0000
__Hstrings                                strings      0000
__Htext                                   text         0000
__Labs1                                   abs1         0000
__Lbank0                                  bank0        0000
__Lbank1                                  bank1        0000
__Lbank2                                  bank2        0000
__Lbank3                                  bank3        0000
__LbssCOMMON                              bssCOMMON    0000
__Lcinit                                  cinit        0000
__Lclrtext                                clrtext      0000
__Lcode                                   code         0000
__Lcommon                                 common       0000
__Lconfig                                 config       0000
__LcstackBANK0                            cstackBANK0  0000
__LcstackCOMMON                           cstackCOMMON 0000
__Leeprom_data                            eeprom_data  0000
__Lend_init                               end_init     0000
__Lfunctab                                functab      0700
__Lidloc                                  idloc        0000
__Linit                                   init         0000
__Lintentry                               intentry     0000
__Lmaintext                               maintext     0000
__Lpowerup                                powerup      0000
__Lram                                    ram          0000
__Lreset_vec                              reset_vec    0000
__Lsfr0                                   sfr0         0000
__Lsfr1                                   sfr1         0000
__Lsfr2                                   sfr2         0000
__Lsfr3                                   sfr3         0000
__Lstrings                                strings      0000
__Ltext                                   text         0000
__S0                                      (abs)        0800
__S1                                      (abs)        007E
__S2                                      (abs)        0000
___bmul                                   text298      07CA
___bmul@multiplicand                      cstackCOMMON 0070
___bmul@multiplier                        cstackCOMMON 0073
___bmul@product                           cstackCOMMON 0072
__end_of_FunctPtr2                        text287      07CA
__end_of_NETM_IMAP_DCM_STATUS_C_Implausi  text288      056B
__end_of_NETM_IMAP_ETM_LTM_Implausible    text299      0571
__end_of___bmul                           text298      07E7
__end_of_copy                             text301      060C
__end_of_copy_structure_as_parameter      text300      05B0
__end_of_cubed                            text296      05C9
__end_of_cubedFunc1                       text292      0800
__end_of_decrement                        text294      055E
__end_of_decrementFunc1                   text290      0566
__end_of_increment                        text295      055A
__end_of_incrementFunc1                   text291      0562
__end_of_main                             maintext     0700
__end_of_my_callback                      text302      0556
__end_of_register_callback                text297      057F
__end_of_square                           text293      058B
__end_of_squareFunc1                      text289      0597
__pbssCOMMON                              bssCOMMON    007C
__pcstackBANK0                            cstackBANK0  0020
__pcstackCOMMON                           cstackCOMMON 0070
__pfunctab                                functab      0700
__pmaintext                               maintext     060C
__pstrings                                strings      0003
__ptext287                                text287      0724
__ptext288                                text288      0566
__ptext289                                text289      058B
__ptext290                                text290      0562
__ptext291                                text291      055E
__ptext292                                text292      07E7
__ptext293                                text293      057F
__ptext294                                text294      055A
__ptext295                                text295      0556
__ptext296                                text296      05B0
__ptext297                                text297      0577
__ptext298                                text298      07CA
__ptext299                                text299      056B
__ptext300                                text300      0597
__ptext301                                text301      05C9
__ptext302                                text302      0554
__size_of_FunctPtr2                       (abs)        0000
__size_of_NETM_IMAP_DCM_STATUS_C_Implausi (abs)        0000
__size_of_NETM_IMAP_ETM_LTM_Implausible   (abs)        0000
__size_of___bmul                          (abs)        0000
__size_of_copy                            (abs)        0000
__size_of_copy_structure_as_parameter     (abs)        0000
__size_of_cubed                           (abs)        0000
__size_of_cubedFunc1                      (abs)        0000
__size_of_decrement                       (abs)        0000
__size_of_decrementFunc1                  (abs)        0000
__size_of_increment                       (abs)        0000
__size_of_incrementFunc1                  (abs)        0000
__size_of_main                            (abs)        0000
__size_of_my_callback                     (abs)        0000
__size_of_register_callback               (abs)        0000
__size_of_square                          (abs)        0000
__size_of_squareFunc1                     (abs)        0000
_copy                                     text301      05C9
_copy_structure_as_parameter              text300      0597
_cubed                                    text296      05B0
_cubed$550                                cstackCOMMON 0077
_cubedFunc1                               text292      07E7
_cubedFunc1$551                           cstackCOMMON 0077
_decrement                                text294      055A
_decrementFunc1                           text290      0562
_exit                                     init         0000
_func_array                               strings      001B
_func_array2                              strings      001F
_increment                                text295      0556
_incrementFunc1                           text291      055E
_main                                     maintext     060C
_my_callback                              text302      0554
_register_callback                        text297      0577
_square                                   text293      057F
_squareFunc1                              text289      058B
_toms_variable                            bssCOMMON    007D
btemp                                     (abs)        007E
copy@dtc_structure_ptr                    cstackBANK0  002C
copy@from_main_copy                       cstackBANK0  0020
copy@i                                    cstackBANK0  002D
copy_structure_as_parameter@dtc_var       cstackCOMMON 0070
copy_structure_as_parameter@yet_another   cstackBANK0  0024
cubed@x                                   cstackCOMMON 0074
cubedFunc1@x                              cstackCOMMON 0074
decrement@x                               cstackCOMMON 0074
decrementFunc1@x                          cstackCOMMON 0074
end_of_initialization                     cinit        0573
entry__squareFunc1                        functab      071B
fpbase                                    functab      0705
fptable                                   functab      0700
fptotal                                   (abs)        000A
increment@x                               cstackCOMMON 0074
incrementFunc1@x                          cstackCOMMON 0074
intlevel0                                 functab      0700
intlevel1                                 functab      0700
intlevel2                                 functab      0700
intlevel3                                 functab      0700
intlevel4                                 functab      0700
intlevel5                                 functab      0700
main@a                                    cstackBANK0  0044
main@b                                    cstackBANK0  0042
main@c                                    cstackBANK0  0040
main@e                                    cstackBANK0  0041
main@ptrFunc                              cstackBANK0  0043
main@test_dtc                             cstackBANK0  0045
main@test_dtc_copy                        cstackBANK0  0034
register_callback@callback_t              cstackCOMMON 0070
reset_vec                                 reset_vec    0000
square@x                                  cstackCOMMON 0074
squareFunc1@x                             cstackCOMMON 0074
start                                     init         0000
start_initialization                      cinit        0571
wtemp0                                    (abs)        007E
