:060000000A128A11122809
:10000800FE00030EF8000408F9000A08FA0083123B
:1000180003137F08FB000A128A11C22B0A128A11E5
:10002800D42B831203132008A4002108A50022085A
:10003800A60086018801890107302202031C2528B1
:1000480026282F280330A30023088805FC30A300A6
:10005800230888062F282208063A031D3428352845
:100068003E280330A300230888058030A300230816
:1000780088063E282208053A031D432844284D28AF
:100088000330A300230888054030A300230888060E
:100098004D282208043A031D522853285C280330AF
:1000A800A300230888052030A300230888065C28BD
:1000B8002208033A031D612862286B280330A30035
:1000C800230888051030A300230888066B28220817
:1000D800023A031D702871287A280330A3002308E8
:1000E80088050830A300230888067A2802302202EF
:1000F80003187F28802889280330A300230888054F
:100108000430A30023088806892807302102031C2D
:100118008E288F289A280330A30023088605FC30F0
:10012800A30023088606033089009A282108063A86
:10013800031D9F28A028AB280330A30023088605A9
:100148008030A3002308860601308900AB282108E7
:10015800053A031DB028B128BC280330A3002308A2
:1001680086054030A3002308860602308900BC2893
:100178002108043A031DC128C228CC280330A30053
:10018800230886052030A300230886068901CC2889
:100198002108033A031DD128D228DC280330A30004
:1001A800230886051030A300230886068901DC2869
:1001B8002108023A031DE128E228EC280330A300B5
:1001C800230886050830A300230886068901EC2841
:1001D800023021020318F128F228FC280330A3007A
:1001E800230886050430A300230886068901FC2815
:1001F80005302002031C012902291329FC30A30021
:1002080023088605FC30A300230888050330A300D3
:10021800230886060330A30023088806132920082C
:10022800043A031D182919292629FC30A30023089C
:100238008605FC30A300230888050130A3002308A5
:10024800860626292008033A031D2B292C2939293B
:10025800FC30A30023088605FC30A300230888058A
:100268000230A3002308860639292008023A031D14
:100278003E293F294C29FC30A30023088805FC307F
:10028800A300230886050130A300230888064C290B
:10029800023020020318512952295F29FC30A3009B
:1002A80023088805FC30A300230886050230A30034
:1002B800230888065F2908000A128A11A7230A1250
:1002C8008A110A128A11DF230A128A11831603136C
:1002D8000C140A128A116E230A128A110B178B1733
:1002E800D03083120313A0000730A10000300A1297
:1002F8008A118B230A128A1183120313B50186010E
:10030800880189012A2A1B2A00300A128A114E23E1
:100318000A128A118312031321082004031D952948
:100328009629A429B5010314B50DD030A0000730D3
:10033800A10000300A128A118B230A128A112A2A74
:10034800B501FC3088002A2A2A2A00300A128A11AC
:100358004E230A128A118312031321082004031D55
:10036800B629B729C6290230B1003108B500D03006
:10037800A0000730A10000300A128A118B230A124C
:100388008A112A2A83120313B5010314B50D3C30D0
:100398008600033089002A2A2A2A00300A128A1184
:1003A8004E230A128A118312031321082004031D05
:1003B800DE29DF29EE290330B1003108B500D0303D
:1003C800A0000730A10000300A128A118B230A12FC
:1003D8008A112A2A023083120313B1003108B500AA
:1003E800FF308600FF308800FF3089002A2A2A2A39
:1003F80000300A128A114E230A128A11831203133B
:1004080021082004031D092A0A2A132A86018801C3
:1004180089010430B1003108B5008B132A2A033052
:10042800B1003108B5002A2A2A2A2A2A2A2A350898
:10043800003A03198829013A0319A929033A03192B
:10044800D129013A0319FC292A2A2A2A83120313DB
:100458003508043A031D312A322A1B2A342A342A41
:100468000A128A1156220A128A118400831300087C
:1004780083120313B200840A0008B300840A000838
:10048800B4003208A0003308A1003408A2000A1200
:100498008A1115200A128A110000342A342A0A12F5
:1004A8008A11122883120313AF0103302F02031C91
:1004B8005E2A5F2A612AB82AB82A0A128A112223D8
:1004C8000A128A1183120313A2002208B00030080E
:1004D8002039A2002208A6002608203A031D752A02
:1004E800762A802AAF08031D7A2A7B2A802A3008B8
:1004F800203AA2002208A90030084039A2002208A8
:10050800A7002708403A031D8A2A8B2A962A2F0813
:10051800013A031D902A912A962A3008403AA200EF
:100528002208AA0030088039A2002208A80028085A
:10053800803A031DA02AA12AAD2A2F08023A031DDA
:10054800A62AA72AAD2A3008803AA2002208AB00C2
:10055800AD2A0130A2002208AF0703302F02031C86
:10056800B62AB72A612AB82A2908AC002A08AD0099
:100578002B08AE0005302C020318C32AC42ADA2A35
:1005880007302D020318C92ACA2ADA2A07302E0290
:100598000318CF2AD02ADA2A2C08A3002D08A40091
:1005A8002E08A5002C30DD2ADD2ADD2A2330DD2A9D
:1005B800DD2A0800831603130C1CE32AE42A212BE6
:1005C800831203130C1CE92AEA2A212B0C10FE3093
:1005D800F6007608900580308E00FF308F001014EA
:1005E800F7017708031DF92AFB2A212B212B77080D
:1005F800F6007607703E84000008840A0004031998
:10060800062B072B162B7708F6007607703E84001A
:1006180001308002840F0030031C800380028403B1
:10062800162B162B0130F6007608F7077708031DFE
:100638001E2BFB2A212B212B212B0800232B831671
:100648000317071B282B292B232B2A2B8312031371
:100658001A08A0002008A100981C332B342B3C2B2F
:1006680018120A128A11DF230A128A11492B3C2B0D
:10067800831203138C1E412B422B492B981C452BAC
:10068800462B3C2B492B492B492B8312031321085A
:100698004D2B080083120313A500A508031D552B35
:1006A800562B632B8B132508A2002207703E84006B
:1006B8000008A300840A0008A4008B17662BA30176
:1006C800A401662B2408A101A1072308A001A00703
:1006D8006D2B080083120313A1012108031D752B3C
:1006E800772B8A2B8A2B2108A0002007703E8400D4
:1006F80000308000840A003080000130A00020080B
:10070800A1072108031D892B772B8A2B0800831248
:100718000313A3002D30A2002208F300F214A3084B
:10072800031D972B982BA62B8B132308A2002207B7
:10073800703E840020088000840A210880008B17FE
:10074800A62BA62B0800F2017130831603138F0025
:100758000830810083160317880189018316031363
:10076800850183120313850183160313860188010B
:100778008901313083120313900008000A128A118C
:10078800DE220A128A117B0883120313FF007A08FB
:100798008A0079088400780E8300FE0E7E0E090018
:1007A800F001F101F201F301F401F501B601830151
:1007B8000A128A116029063083160313990025301E
:0C07C80098009030831203139800080082
:04400E00E51AFF3F71
:00000001FF
