MPLINK 4.41, Linker
Linker Map File - Created Fri Mar 16 13:32:39 2012

                                 Section Info
                  Section       Type    Address   Location Size(Bytes)
                ---------  ---------  ---------  ---------  ---------
                   .org_0       code   0x000000    program   0x000000
                   .org_1       code   0x000000    program   0x000002
                   .org_2       code   0x000004    program   0x0000a2
      .config_2007_RBIE.O       code   0x002007    program   0x000002
      .config_2008_RBIE.O       code   0x002008    program   0x000002



                              Program Memory Usage 
                               Start         End      
                           ---------   ---------      
                            0x000000    0x000000      
                            0x000004    0x000054      
                            0x002007    0x002008      
            84 out of 8455 program addresses used, program memory utilization is 0%



                              Symbols - Sorted by Name
                     Name    Address   Location    Storage File                     
                ---------  ---------  ---------  --------- ---------                
                     main   0x000014    program     static C:\pic_projects\Interrupts example\RBIE.asm
                main_loop   0x000042    program     static C:\pic_projects\Interrupts example\RBIE.asm
         portb_change_isr   0x00004e    program     static C:\pic_projects\Interrupts example\RBIE.asm
              wait_stable   0x000018    program     static C:\pic_projects\Interrupts example\RBIE.asm



                              Symbols - Sorted by Address
                     Name    Address   Location    Storage File                     
                ---------  ---------  ---------  --------- ---------                
                     main   0x000014    program     static C:\pic_projects\Interrupts example\RBIE.asm
              wait_stable   0x000018    program     static C:\pic_projects\Interrupts example\RBIE.asm
                main_loop   0x000042    program     static C:\pic_projects\Interrupts example\RBIE.asm
         portb_change_isr   0x00004e    program     static C:\pic_projects\Interrupts example\RBIE.asm


