HI-TECH Software C Compiler 

Linker command line:

--edf=C:\Program Files (x86)\HI-TECH Software\PICC\9.80\dat\en_msgs.txt -cs \
  -h+INPUT_CAPTURE_MODE.sym -z -Q16F887 -ol.obj -MINPUT_CAPTURE_MODE.map \
  -E1 -ACONST=00h-0FFhx32 -ACODE=00h-07FFhx4 -ASTRCODE=00h-01FFFh \
  -AENTRY=00h-0FFhx32 -ASTRING=00h-0FFhx32 -ABANK0=020h-06Fh \
  -ABANK1=0A0h-0EFh -ABANK2=0110h-016Fh -ABANK3=0190h-01EFh \
  -ARAM=020h-06Fh,0A0h-0EFh,0110h-016Fh,0190h-01EFh \
  -AABS1=020h-07Fh,0A0h-0EFh,0110h-016Fh,0190h-01EFh -ACOMMON=070h-07Fh \
  -ASFR0=00h-01Fh -ASFR1=080h-09Fh -ASFR2=0100h-010Fh -ASFR3=0180h-018Fh \
  -preset_vec=00h,intentry=04h,init,end_init -ppowerup=CODE -pfunctab=CODE \
  -ACONFIG=02007h-02008h -pconfig=CONFIG -DCONFIG=2 -AIDLOC=02000h-02003h \
  -pidloc=IDLOC -DIDLOC=2 -AEEDATA=00h-0FFh/02100h -peeprom_data=EEDATA \
  -DEEDATA=2 -DCODE=2 -DSTRCODE=2 -DSTRING=2 -DCONST=2 -DENTRY=2 -k \
  startup.obj INPUT_CAPTURE_MODE.obj 

Object code version is 3.10

Machine type is 16F887



                Name                               Link     Load   Length Selector   Space Scale
startup.obj     end_init                             12       12        3        8       0
                reset_vec                             0        0        3        0       0
INPUT_CAPTURE_MODE.obj
                intentry                              4        4        E        8       0
                config                             2007     2007        2     400E       0
                text113                              39       39       16        8       0
                text112                              62       62       12        8       0
                text111                              74       74        8        8       0
                text110                              4F       4F       13        8       0
                text109                              82       82        5        8       0
                maintext                             15       15       24        8       0
                cstackCOMMON                         70       70        5       70       1
                bssCOMMON                            77       77        2       70       1
                cinit                                7C       7C        6        8       0
                nvCOMMON                             75       75        2       70       1

TOTAL           Name                               Link     Load   Length     Space
        CLASS   CONST          

        CLASS   CODE           
                end_init                             12       12        3         0
                intentry                              4        4        E         0
                reset_vec                             0        0        3         0
                text113                              39       39       16         0
                text112                              62       62       12         0
                text111                              74       74        8         0
                text110                              4F       4F       13         0
                text109                              82       82        5         0
                maintext                             15       15       24         0
                cinit                                7C       7C        6         0

        CLASS   STRCODE        

        CLASS   ENTRY          

        CLASS   STRING         

        CLASS   BANK0          

        CLASS   BANK1          

        CLASS   BANK2          

        CLASS   BANK3          

        CLASS   RAM            

        CLASS   ABS1           
                abs_s1                               7E       7E        2         1

        CLASS   COMMON         
                cstackCOMMON                         70       70        5         1
                bssCOMMON                            77       77        2         1
                nvCOMMON                             75       75        2         1

        CLASS   SFR0           

        CLASS   SFR1           

        CLASS   SFR2           

        CLASS   SFR3           

        CLASS   CONFIG         
                config                             2007     2007        2         0

        CLASS   IDLOC          

        CLASS   EEDATA         



SEGMENTS        Name                           Load    Length   Top    Selector   Space  Class     Delta

                reset_vec                      000000  000003  000003         0       0  CODE        2
                intentry                       000004  000083  000087         8       0  CODE        2
                cstackCOMMON                   000070  000009  000079        70       1  COMMON      1
                config                         002007  000002  002009      400E       0  CONFIG      2


UNUSED ADDRESS RANGES

        Name                Unused          Largest block    Delta
        BANK0            0020-006F             50           1
        BANK1            00A0-00EF             50           1
        BANK2            0110-016F             60           1
        BANK3            0190-01EF             60           1
        CODE             0003-0003              1           2
                         0087-1FFF            800
        COMMON           0079-007D              5           1
        CONST            0003-0003              1           2
                         0087-1FFF            100
        EEDATA           2100-21FF            100           2
        ENTRY            0003-0003              1           2
                         0087-1FFF            100
        IDLOC            2000-2003              4           2
        RAM              0020-006F             50           1
                         00A0-00EF             50
                         0110-016F             60
                         0190-01EF             60
        SFR0             0000-001F             20           1
        SFR1             0080-009F             20           1
        SFR2             0100-010F             10           1
        SFR3             0180-018F             10           1
        STRCODE          0003-0003              1           2
                         0087-1FFF           1F79
        STRING           0003-0003              1           2
                         0087-1FFF            100

                                  Symbol Table

??_capture_mode_init        cstackCOMMON 0074
??_handler                  cstackCOMMON 0070
??_main                     cstackCOMMON 0075
??_portpin_init             cstackCOMMON 0074
??_timer1_init              cstackCOMMON 0074
??_timer1_isr               cstackCOMMON 0070
?_capture_mode_init         cstackCOMMON 0070
?_handler                   cstackCOMMON 0070
?_main                      cstackCOMMON 0070
?_portpin_init              cstackCOMMON 0070
?_timer1_init               cstackCOMMON 0070
?_timer1_isr                cstackCOMMON 0070
_CCP2CON                    (abs)        001D
_CCPR2H                     (abs)        001C
_GIE                        (abs)        005F
_PEIE                       (abs)        005E
_PORTD                      (abs)        0008
_T1CKPS0                    (abs)        0084
_T1CKPS1                    (abs)        0085
_T1GINV                     (abs)        0087
_T1OSCEN                    (abs)        0083
_T1SYNC                     (abs)        0082
_TMR1CS                     (abs)        0081
_TMR1GE                     (abs)        0086
_TMR1H                      (abs)        000F
_TMR1IE                     (abs)        0460
_TMR1IF                     (abs)        0060
_TMR1L                      (abs)        000E
_TMR1ON                     (abs)        0080
_TRISC                      (abs)        0087
_TRISD                      (abs)        0088
__Habs1                     abs1         0000
__Hbank0                    bank0        0000
__Hbank1                    bank1        0000
__Hbank2                    bank2        0000
__Hbank3                    bank3        0000
__HbssCOMMON                bssCOMMON    0000
__Hcinit                    cinit        0000
__Hclrtext                  clrtext      0000
__Hcode                     code         0000
__Hcommon                   common       0000
__Hconfig                   config       2009
__HcstackCOMMON             cstackCOMMON 0000
__Heeprom_data              eeprom_data  0000
__Hend_init                 end_init     0015
__Hfunctab                  functab      0000
__Hidloc                    idloc        0000
__Hinit                     init         0012
__Hintentry                 intentry     0012
__Hmaintext                 maintext     0000
__HnvCOMMON                 nvCOMMON     0000
__Hpowerup                  powerup      0000
__Hram                      ram          0000
__Hreset_vec                reset_vec    0003
__Hsfr0                     sfr0         0000
__Hsfr1                     sfr1         0000
__Hsfr2                     sfr2         0000
__Hsfr3                     sfr3         0000
__Hstrings                  strings      0000
__Htext                     text         0000
__Labs1                     abs1         0000
__Lbank0                    bank0        0000
__Lbank1                    bank1        0000
__Lbank2                    bank2        0000
__Lbank3                    bank3        0000
__LbssCOMMON                bssCOMMON    0000
__Lcinit                    cinit        0000
__Lclrtext                  clrtext      0000
__Lcode                     code         0000
__Lcommon                   common       0000
__Lconfig                   config       2007
__LcstackCOMMON             cstackCOMMON 0000
__Leeprom_data              eeprom_data  0000
__Lend_init                 end_init     0012
__Lfunctab                  functab      0000
__Lidloc                    idloc        0000
__Linit                     init         0012
__Lintentry                 intentry     0004
__Lmaintext                 maintext     0000
__LnvCOMMON                 nvCOMMON     0000
__Lpowerup                  powerup      0000
__Lram                      ram          0000
__Lreset_vec                reset_vec    0000
__Lsfr0                     sfr0         0000
__Lsfr1                     sfr1         0000
__Lsfr2                     sfr2         0000
__Lsfr3                     sfr3         0000
__Lstrings                  strings      0000
__Ltext                     text         0000
__S0                        (abs)        2009
__S1                        (abs)        0079
__S2                        (abs)        0000
__end_of_capture_mode_init  text109      0087
__end_of_handler            text112      0074
__end_of_main               maintext     0039
__end_of_portpin_init       text111      007C
__end_of_timer1_init        text110      0062
__end_of_timer1_isr         text113      004F
__pbssCOMMON                bssCOMMON    0077
__pcstackCOMMON             cstackCOMMON 0070
__pintentry                 intentry     0004
__pmaintext                 maintext     0015
__pnvCOMMON                 nvCOMMON     0075
__ptext109                  text109      0082
__ptext110                  text110      004F
__ptext111                  text111      0074
__ptext112                  text112      0062
__ptext113                  text113      0039
__ptext114                  text114      0000
__size_of_capture_mode_init (abs)        0000
__size_of_handler           (abs)        0000
__size_of_main              (abs)        0000
__size_of_portpin_init      (abs)        0000
__size_of_timer1_init       (abs)        0000
__size_of_timer1_isr        (abs)        0000
_capture_mode_init          text109      0082
_exit                       init         0012
_handler                    text112      0062
_main                       maintext     0015
_portpin_init               text111      0074
_timer1_init                text110      004F
_timer1_isr                 text113      0039
_volatile_timer1_count      bssCOMMON    0077
btemp                       (abs)        007E
end_of_initialization       cinit        007E
interrupt_function          intentry     0004
intlevel0                   functab      0000
intlevel1                   functab      0000
intlevel2                   functab      0000
intlevel3                   functab      0000
intlevel4                   functab      0000
intlevel5                   functab      0000
main@timer1_counter         nvCOMMON     0075
reset_vec                   reset_vec    0000
saved_w                     (abs)        007E
start                       init         0012
start_initialization        cinit        007C
wtemp0                      (abs)        007E
