:060000000A128A157B2C98
:10000800831203132608F0002708F100F2018E304E
:10001800FC007C08F3000310003003180130F400E2
:100028000A128A157F250A128A117008831203138F
:10003800A6007108A7007208A80022280800FB0083
:100048007B0883120313A000A101A2012008F0007D
:100058002108F1002208F2008E30A3002308F300E3
:100068000310003003180130F4000A128A157F25A6
:100078000A128A117008F8007108F9007208FA006B
:1000880045280800831203132408AA002508AB009A
:100098002608AC0003102B0D2C0DAD002D08AE006A
:1000A800AE08031D5828592861280030A4000030E4
:1000B800A5000030A600332933292708AA002808FC
:1000C800AB002908AC0003102B0D2C0DAD002D083A
:1000D800B300B308031D712872287A280030A400E1
:1000E8000030A5000030A6003329332933087B3EB1
:1000F800AA002A08AE072408AA002508AB0026088B
:10010800AC0010300310AC0CAB0CAA0CFF3E031D66
:1001180086282A08AD002D08B3002708AA00280859
:10012800AB002908AC0010300310AC0CAB0CAA0CC7
:10013800FF3E031D98282A08AD002D08B30680301D
:10014800AA002A08B305A517A817FF30A705FF308E
:10015800A8050030A9050030AF000030B00000301D
:10016800B1000730AA002A08B200BA28241CBD280A
:10017800BE28CF282708AF07280803110318280A24
:100188000319C728B007290803110318290A0319F6
:10019800CE28B107CF2801300310A60CA50CA40C5B
:1001A800FF3E031DD02801300310A70DA80DA90D8F
:1001B800FF3E031DD8280130B202031DE428E528BC
:1001C800BA28E6280930AA002A08B200EB28241C1D
:1001D800EE28EF2800292708AF072808031103187D
:1001E800280A0319F828B007290803110318290A4F
:1001F8000319FF28B107002901300310A60CA50C2C
:10020800A40CFF3E031D012901300310B10CB00CF2
:10021800AF0CFF3E031D09290130B202031D152949
:100228001629EB2817292F08F0003008F1003108AB
:10023800F2002E08AA002A08F3003308AB002B08A6
:10024800F4000A128A157F250A128A11700883128F
:100258000313A4007108A5007208A600332908003A
:100268000A128A152B250A128A11AC3084008312CF
:1002780003132030E4000408E5002230E600640897
:10028800840083130008E700E40A6508840067080F
:100298008000E50AE60B4329003083160313AA0001
:1002A8000030AB000030A4000030A5000030A600EC
:1002B8000030A7000030A8000030A90063290030F2
:1002C80083160313A700A030A800C130A9002B088B
:1002D800803AFF0080307F02031D742937302A02DC
:1002E800031C772978299029831603132B08803A51
:1002F800FF0080307F02031D832942302A02031841
:10030800862987299029003083160313A7004430D3
:10031800A8004230A900902900008316031327087B
:10032800F4002808F5002908F6000A128A15922612
:100338000A128A11770883120313A9007608A80005
:100348007508A7007408A6000030AA000030AB00AA
:100358000030AC000030AD000030AE000030AF001F
:100368000030B0008030B1003F30B2000030B30040
:100378008030B4003F30B500AC300A128A159124A1
:100388000A128A11AC300A128A116D230A128A11D4
:100398000000AC300A128A156C240A128A117008FF
:1003A800F4007108F5007208F6000A128A15922600
:1003B8000A128A11770883160313A3007608A2008D
:1003C8007508A1007408A000D73083120313B40085
:1003D8002330B5003C30B60083160313240883127B
:1003E8000313B70083160313250883120313B800F9
:1003F80083160313260883120313B9000A128A11FD
:1004080023220A128A118312031334088316031352
:10041800A40083120313350883160313A50083125F
:100428000313360883160313A6000130AA0703181E
:10043800AB0A0030AB070000632963290800831268
:1004480003133408BA003508BB003608BC00031093
:100458003B0D3C0DBD003D08C0003708BA00380808
:10046800BB003908BC0003103B0D3C0DBD003D0826
:10047800BF004008031D412A522A3F0840020318C2
:10048800462A472A5A2A4003FF3A3F07BA0019303A
:100498003A02031C502A512A5A2A522A3708B40011
:1004A8003808B5003908B6006C2B6C2B3F08031DC3
:1004B8005E2A6E2A40083F020318632A642A6F2ABC
:1004C8003F03FF3A4007BA0019303A02031C6D2A6D
:1004D8006E2A6F2A6C2B0630BA003A08BE00B61F87
:1004E800762A772A782ABE17B91F7B2A7C2A7D2A82
:1004F8003E17B517FF30B405FF30B5050030B60517
:10050800B817FF30B705FF30B8050030B9053F0808
:1005180040020318902A912AC22A922A0130031015
:10052800B70DB80DB90DFF3E031D932A0130BF0268
:100538003F0840060319A12AA22ABA2A0130BE029E
:100548003E080739031DA92AAA2A922ABA2ABA2AD2
:10055800BA2A01300310B60CB50CB40CFF3E031DCB
:10056800AE2A0130BA003A08C007BA2A40083F0646
:10057800031DBF2AC02AAD2AF92AF92A40083F02DA
:100588000318C72AC82AF92AC92A01300310B40D4A
:10059800B50DB60DFF3E031DCA2A0130C0023F0843
:1005A80040060319D82AD92AF12A0130BE023E088A
:1005B8000739031DE02AE12AC92AF12AF12AF12A7A
:1005C80001300310B90CB80CB70CFF3E031DE52A27
:1005D8000130BA003A08BF07F12A40083F06031D58
:1005E800F62AF72AE42AF92AF92ABE1FFC2AFD2A44
:1005F8000E2BFF30B406FF30B506FF30B6060130CB
:10060800B407003003180130B50700300318013073
:10061800B6070E2B3E1F112B122B232BFF30B706CC
:10062800FF30B806FF30B9060130B70700300318AD
:100638000130B807003003180130B907232B031025
:10064800003003180130BE003408B707350803111D
:100658000318350A0319312BB80736080311031894
:10066800360A0319382BB907B91F3B2B3C2B502BE3
:10067800FF30B706FF30B806FF30B9060130B707BC
:10068800003003180130B807003003180130B907EB
:10069800BE010314BE0D502B3708F0003808F100D6
:1006A8003908F2004008BA003A08F3003E08BB00D7
:1006B8003B08F4000A128A157F250A128A1170086D
:1006C80083120313B4007108B5007208B6006C2BCE
:1006D800080083120313D4005408033E84008313D4
:1006E8000008A400840A0008A500840A0008A600DF
:1006F800540884000008A700840A0008A800840A97
:100708000008A9000A128A1146200A128A118312C7
:1007180003132408B4002508B5002608B6005408B9
:10072800093E840083130008A400840A0008A50079
:10073800840A0008A6005408063E84000008A700A2
:10074800840A0008A800840A0008A9000A128A116D
:1007580046200A128A11831203132408B7002508B9
:10076800B8002608B9000A128A1123220A128A112F
:10077800831203135408093E84003408831380004D
:10078800840A35088000840A360880005408063E2A
:1007980084000008A400840A0008A500840A000850
:1007A800A6005408183E84000008A700840A000820
:1007B800A800840A0008A9000A128A1146200A1211
:1007C8008A11831203132408D1002508D2002608B1
:1007D800D3005408063E840083130008A400840A4A
:1007E8000008A500840A0008A6005108A7005208BE
:1007F800A8005308A9000A128A1146200A128A1171
:10080800831203135408183E8400240883138000BD
:10081800840A25088000840A2608800054080C3EB3
:1008280084000008A400840A0008A500840A0008BF
:10083800A6005408183E84000008A700840A00088F
:10084800A800840A0008A9000A128A1146200A1280
:100858008A11831203132408D1002508D200260820
:10086800D30054081E3E840083130008B400840A91
:100878000008B500840A0008B60054080C3E84003D
:100888000008A400840A0008A500840A0008A6003D
:100898005108A7005208A8005308A9000A128A1193
:1008A80046200A128A11831203132408B700250868
:1008B800B8002608B9000A128A1123220A128A11DE
:1008C800831203133408C1003508C2003608C30078
:1008D80054080C3E840083130008A400840A00080E
:1008E800A500840A0008A6005408183E84000008E1
:1008F800A700840A0008A800840A0008A9000A12B0
:100908008A1146200A128A11831203132408C4008C
:100918002508C5002608C6000A128A1538270A12B3
:100928008A118312031354081B3E84004108831361
:100938008000840A42088000840A43088000540822
:100948000F3E84000008B400840A0008B500840A39
:100958000008B60054080C3E84000008A700840A6A
:100968000008A800840A0008A9005408093E840069
:100978000008A400840A0008A500840A0008A6004C
:100988000A128A1146200A128A11831203132408B4
:10099800F8002508F9002608FA000A128A156024CA
:1009A8000A128A11780883120313B7007908B8006D
:1009B8007A08B9000A128A1123220A128A118312AC
:1009C80003133408D1003508D2003608D300540880
:1009D800093E840083130008B400840A0008B500A7
:1009E800840A0008B60054081B3E84000008A400CE
:1009F800840A0008A500840A0008A6005108A70078
:100A08005208A8005308A9000A128A1146200A129F
:100A18008A11831203132408B7002508B800260892
:100A2800B9000A128A1123220A128A1183120313A7
:100A38005408093E8400340883138000840A35086A
:100A48008000840A360880000030B4008030B50089
:100A58003F30B60054081B3E84000008A700840AF3
:100A68000008A800840A0008A90054080C3E840065
:100A78000008A400840A0008A500840A0008A6004B
:100A88000A128A1146200A128A11831203132408B3
:100A9800F8002508F9002608FA000A128A156024C9
:100AA8000A128A11780883120313B7007908B8006C
:100AB8007A08B9000A128A1123220A128A118312AB
:100AC80003133408D1003508D2003608D30054087F
:100AD800183E840083130008A400840A0008A500B7
:100AE800840A0008A6005108A7005208A800530865
:100AF800A9000A128A1146200A128A1183120313C6
:100B08005408183E8400240883138000840A2508AA
:100B18008000840A26088000080083120313D70087
:100B28000030DB008030DC003F30DD000030D400D6
:100B38000030D5000030D600D32F013084000A12CF
:100B48008A1500200A128A11B4000A128A15002098
:100B58000A128A11B5000A128A1500200A128A118F
:100B6800B6005B08B7005C08B8005D08B9000A1257
:100B78008A1123220A128A11831203133408C1002E
:100B88003508C2003608C3005B08C4005C08C5000D
:100B98005D08C6000A128A1538270A128A118312BC
:100BA80003134108ED004208EE004308EF006D080A
:100BB800A4006E08A5006F08A6005408F8005508A0
:100BC800F9005608FA000A128A1560240A128A11D6
:100BD800780883120313B4007908B5007A08B600C0
:100BE80057080A128A1123200A128A1178088312D8
:100BF8000313B7007908B8007A08B9000A128A11F5
:100C080023220A128A11831203133408A700350815
:100C1800A8003608A9000A128A1146200A128A1169
:100C2800831203132408D8002508D9002608DA00FF
:100C38005408B4005508B5005608B6005808B7005F
:100C48005908B8005A08B9000A128A1123220A1250
:100C58008A1183120313340883160313CE008312F8
:100C68000313350883160313CF00831203133608C2
:100C780083160313D0004E08D4004F08D50050083F
:100C8800D600831203135B08A4005C08A5005D0866
:100C9800A6000030B4008030B5003F30B6006D08C3
:100CA800F8006E08F9006F08FA000A128A15602425
:100CB8000A128A11780883120313B7007908B8005A
:100CC8007A08B9000A128A1123220A128A11831299
:100CD80003133408A7003508A8003608A9000A122B
:100CE8008A1146200A128A118312031324088316D4
:100CF8000313D10083120313250883160313D200AC
:100D080083120313260883160313D3005108D8004F
:100D18005208D9005308DA00DC2F013084000A1287
:100D28008A1500200A128A118312B4000A128A1541
:100D380000200A128A11B5000A128A1500200A1228
:100D48008A11B60083160313510883120313B700E0
:100D580083160313520883120313B8008316031370
:100D6800530883120313B9000A128A1123220A12A4
:100D78008A11831203133408C1003508C2003608EB
:100D8800C30083160313510883120313A4008316A8
:100D98000313520883120313A50083160313530881
:100DA80083120313A600043084000A128A15002057
:100DB8000A128A110A128A1123200A128A11780843
:100DC80083120313A7007908A8007A08A9000A1259
:100DD8008A1146200A128A11831203132408C400B8
:100DE8002508C5002608C6000A128A1538270A12DF
:100DF8008A11831203134108ED004208EE004308EC
:100E0800EF006D08A4006E08A5006F08A600831601
:100E180003135408F8005508F9005608FA000A1296
:100E28008A1560240A128A11780883120313B40001
:100E38007908B5007A08B60057080A128A112320E3
:100E48000A128A11780883120313B7007908B800C8
:100E58007A08B9000A128A1123220A128A11831207
:100E680003133408A7003508A8003608A9000A1299
:100E78008A1146200A128A11831203132408D80003
:100E88002508D9002608DA008316031354088312AC
:100E98000313B40083160313550883120313B50014
:100EA80083160313560883120313B6005808B700B5
:100EB8005908B8005A08B9000A128A1123220A12DE
:100EC8008A1183120313340883160313CE00831286
:100ED8000313350883160313CF0083120313360850
:100EE80083160313D0004E08D4004F08D5005008CD
:100EF800D600580883120313A40083160313590855
:100F080083120313A500831603135A0883120313CD
:100F1800A6000030B4008030B5003F30B6006D0840
:100F2800F8006E08F9006F08FA000A128A156024A2
:100F38000A128A11780883120313B7007908B800D7
:100F48007A08B9000A128A1123220A128A11831216
:100F580003133408A7003508A8003608A9000A12A8
:100F68008A1146200A128A11831203132408831651
:100F78000313D10083120313250883160313D20029
:100F880083120313260883160313D3005108D800CD
:100F98005208D9005308DA00DC2FDC2FDC2F83122B
:100FA8005108003A0319A12D013A0319912EDC2F9B
:100FB800831603134E08F4004F08F5005008F60096
:100FC8000A128A1592260A128A11750883120313C7
:100FD800A701A7077408A601A6070A128A11042008
:100FE8000A128A11831203132608D1002708D20097
:100FF8002808D300FF2F080008308A000408840A54
:0C1008008207003400348034403402348D
:1018C0007A08790478040319662C672C6A2C803016
:1018D000FA066A2C6B2C0800F3007308093E84009A
:1018E00083130008F000840A0008F100840A00084D
:1018F000F2007A2C0800ED01EE01EF0183160313CC
:10190000CE01CF01D001D101D201D301D401D50143
:10191000D601D701D801D901DA0183010A128A154B
:10192000FA2D83120313B600360884002D088313A2
:101930008000840A2E088000840A2F088000360860
:10194000033E84002A088000840A2B088000840A51
:101950002C0880003608063E840030088000840A87
:1019600031088000840A3208800036080C3E84006A
:1019700033088000840A34088000840A3508800017
:101980002908FB002808FA002708F9002608F800B3
:101990000A128A15DC240A128A15831203133608E8
:1019A0000F3E8400780883138000840A7908800041
:1019B000840A7A0880000800031000300318013000
:1019C00083120313A1008E30FC007C08A000FB1FD3
:1019D000EA2CEB2C092DF809F909FA09FB09F80A98
:1019E0000319F90A0319FA0A0319FB0AA1010314DE
:1019F000A10D092D092D01300310FB0CFA0CF90C77
:101A0000F80CFF3E031DFC2C0130FC007C08A007F5
:101A1000092DFF307B05031D0E2D0F2DFB2C102DE6
:101A20007808F0007908F1007A08F2002008FC003C
:101A30007C08F3002108FD007D08F4000A128A15D5
:101A40007F250A128A157008F8007108F9007208DB
:101A5000FA002A2D0800003083120313C200003060
:101A6000C3000030C4000030C5000030C6000030A4
:101A7000C7000030C8000030C9004030CA00003044
:101A8000CB000030CC000030CD000030CE00003064
:101A9000CF000030D0000030D1000030D200003044
:101AA000D3000030DA008030DB003F30DC00003053
:101AB000DD008030DE003F30DF000030E0008030AD
:101AC000E1003F30E2000310003003180130E30072
:101AD000203084004230F0000408F1002230F2008F
:101AE0007008840083130008F300F00A7108840072
:101AF00073088000F10AF20B702D7E2D0800730828
:101B0000031D832D8B2D720871047004031D892D14
:101B10008A2DA12D8B2D0030F0000030F100003017
:101B2000F200F92DF92DA12D0130F5007508F3070C
:101B300001300310F20CF10CF00CFF3E031D992D47
:101B4000A12DFE307205031DA62DA72D942DBF2DAE
:101B5000BF2D0130F5007508F3070130F0070030A4
:101B600003180130F107003003180130F20701308B
:101B70000310F20CF10CF00CFF3E031DB82DFF30EA
:101B80007205031DC42DC52DA92DD22DD22D0130D6
:101B9000F30201300310F00DF10DF20DFF3E031DB5
:101BA000CA2DD22DF11FD52DD62DC72D7318D92DA5
:101BB000DA2DE02DFF30F0057F30F105FF30F20522
:101BC0000310F30C7308F500F601F7011030031051
:101BD000F50DF60DF70DFF3E031DE72D7508F0041A
:101BE0007608F1047708F2047408031DF82DF92D26
:101BF000F2170800003083120313EB000030EC00F2
:101C00000310003003180130D10000300A128A118D
:101C100091250A128A15831203135108E80052080D
:101C2000E9005308EA0000000A128A1134210A125E
:101C30008A151A2E003083120313EB000030EC00DB
:101C40006C08803AFF0083307F02031D292EE930A3
:101C50006B02031C2C2E2D2E2F2E1A2E1A2E000056
:101C600083120313D1010314D10D14300A128A1107
:101C700091250A128A15831203135108E8005208AD
:101C8000E9005308EA000000831203136C08803A4D
:101C9000FF0080307F02031D4F2E37306B02031C84
:101CA000522E532E762E831203136C08803AFF00B7
:101CB00080307F02031D5E2E42306B020318612EBE
:101CC000622E762E83120313D1010314D10D31300D
:101CD0000A128A1191250A128A15831203135108D8
:101CE000E8005208E9005308EA00762E00000130AF
:101CF00083120313EB070318EC0A0030EC076C089F
:101D0000803AFF0083307F02031D882EE9306B028A
:101D1000031C8B2E8C2E2F2E1A2E1A2E1A2E0A12E0
:101D20008A1100287408F8007508F9007608FA008E
:101D30000310790D7A0DFB007B0883120313A500B5
:101D4000A508031DA42EA52EAF2E0030F7000030ED
:101D5000F6000030F5000030F400372F372F7408FC
:101D6000F8007508F9007608FA0017300310FA0C2D
:101D7000F90CF80CFF3E031DB62E7808FB007B081B
:101D8000A000F517FF30F405FF30F5050030F6052B
:101D90007408A1007508A2007608A300A4018E3083
:101DA000A502A51FD42ED52EFA2E2508803A8F3EE7
:101DB0000318DB2EDC2EE72E0030F7000030F60093
:101DC0000030F5000030F400372F372FE72E0130B8
:101DD0000310A40CA30CA20CA10CFF3E031DE82EC3
:101DE0000130F8007808A507031DF72EF82EE72E1E
:101DF0001E2F1E2F18302502031CFF2E002F172F19
:101E00000030F7000030F6000030F5000030F4003C
:101E1000372F372F172F0130F8000310A10DA20D17
:101E2000A30DA40DF80B0D2F0130A502172FA50847
:101E3000031D1B2F1C2F0B2F1E2F1E2F2008031DD1
:101E4000222F2E2FA109A209A309A409A10A03196F
:101E5000A20A0319A30A0319A40A2E2F2408F700C3
:101E60002308F6002208F5002108F400372F0800A7
:101E7000831203134408C7004508C8004608C90078
:101E80000310480D490DCA004A08CF00CF08031DB2
:101E90004A2F4B2F532F0030C1000030C2000030BA
:101EA000C300FF2FFF2F4108C7004208C8004308A6
:101EB000C9000310480D490DCA004A08D000D008D7
:101EC000031D632F642F6C2F0030C1000030C2004F
:101ED0000030C300FF2FFF2F0030CC000030CD00BA
:101EE0000030CE0089305007C7004708CF024408B1
:101EF000C7004508C8004608C90010300310C90CC7
:101F0000C80CC70CFF3E031D7E2F4708CA004A08B5
:101F1000D0004108C7004208C8004308C90010307B
:101F20000310C90CC80CC70CFF3E031D902F4708B7
:101F3000CA004A08D0068030C7004708D005C51738
:101F4000FF30C405FF30C5050030C605C217FF309D
:101F5000C105FF30C2050030C3051830C70047086F
:101F6000CB00B22F01300310CC0DCD0DCE0DFF3EB6
:101F7000031DB32F43084602031DC42F4208450228
:101F8000031DC42F41084402031CC72FC82FD42FA0
:101F90004108C4024208031C420FC5024308031C47
:101FA000430AC6024C14D42F01300310C40DC50DD2
:101FB000C60DFF3E031DD52F0130CB02031DE12FBF
:101FC000E22FB22FE32F4C08F0004D08F1004E082D
:101FD000F2004F08C7004708F3005008C80048083F
:101FE000F4000A128A157F250A128A1570088312D6
:101FF0000313C1007108C2007208C300FF2F08005C
:04400E00A51AFF3FB1
:00000001FF
