:100000000A128A11B62F00308A000408840A820777
:0C00100000340134043407340A340D3489
:100BDA000D30FC007C0883120313A6004130A200EA
:100BEA000130A300FE30831203138300ED30831219
:100BFA0003138200FA30831203138100CE3083126A
:100C0A00031380000D30FC007C08AB000530F600B1
:100C1A000030F7000630F8000030F9002B080A12FD
:100C2A008A1100270A128A11770883120313A50171
:100C3A00A5077608A401A4071030FC007C08AB00C5
:100C4A001430F6000030F7000530F8000030F900E3
:100C5A002B080A128A1100270A128A1177088312AE
:100C6A000313A101A1077608A001A0070A30F60024
:100C7A000030F7001430F8000030F90026080A1294
:100C8A008A1100270A128A11770883120313A50111
:100C9A00A5077608A401A4070530A9000030AA0018
:100CAA002A08F701F7072908F601F6070130840038
:100CBA000A128A1103200A128A110A128A110027BB
:100CCA000A128A11770883120313A801A807760863
:100CDA00A701A7070030A7000030A8002A08F701DB
:100CEA00F7072908F601F607023084000A128A116A
:100CFA0003200A128A110A128A1100270A128A117B
:100D0A00770883120313A801A8077608A701A70783
:100D1A000030A7000030A8002A08F701F7072908C1
:100D2A00F601F607033084000A128A1103200A1218
:100D3A008A110A128A1100270A128A117708831265
:100D4A000313A801A8077608A701A7070030A70080
:100D5A000030A8002A08F701F7072908F601F60764
:100D6A00043084000A128A1103200A128A110A1214
:100D7A008A1100270A128A11770883120313A8011D
:100D8A00A8077608A701A7070030A7000030A80027
:100D9A002A08F701F7072908F601F6070A128A1145
:100DAA006E270A128A11770883120313A801A8076B
:100DBA007608A701A7073730A9000030AA002A0839
:100DCA00F701F7072908F601F6070A128A11AC2774
:100DDA000A128A11770883120313A801A807760852
:100DEA00A701A7070030A7000030A800F72DF72DAC
:100DFA000A128A110028FF0007308A007F0882073A
:100E0A00052F0A128A11AC2F0A128A11A22F0A126E
:100E1A008A116E2F0A128A11442F0A128A11982FE8
:100E2A000A128A11872F0030F4000030F5001D2FB6
:100E3A00701C202F212F272F7208F4070318F50A98
:100E4A007308F50701300310F20DF30DFF3E031D81
:100E5A00282F01300310F10CF00CFF3E031D2F2F39
:100E6A0071087004031D3A2F3B2F1D2F3C2F750864
:100E7A00F101F1077408F001F007432F0800770821
:100E8A00F101F1077608F001F0077708F301F3079B
:100E9A007608F201F2070A128A1118270A128A1131
:100EAA007108F101F1077008F001F0077708F30102
:100EBA00F3077608F201F2070A128A1118270A12B2
:100ECA008A117108F701F7077008F601F6076D2F06
:100EDA0008007708F101F1077608F001F0077708B2
:100EEA00F301F3077608F201F2070A128A111827AA
:100EFA000A128A117108F701F7077008F601F60756
:100F0A00862F08007809FA007909FB00FA0A031902
:100F1A00FB0A76087A07F60077080318770A7B0730
:100F2A00F700972F080078087607F6007908031863
:100F3A00790A7707F700A12F08007608FF3EF60026
:100F4A0077080318013EFF3EF700AB2F080076082A
:100F5A00013EF60077080318013E003EF700B52F60
:0E0F6A000800FD01AC0183010A128A11ED2D71
:00000001FF
