MPLINK 4.38, Linker
Linker Map File - Created Sat Apr 23 08:55:51 2011

                                 Section Info
                  Section       Type    Address   Location Size(Bytes)
                ---------  ---------  ---------  ---------  ---------
                   .org_0       code   0x000000    program   0x000000
                   .org_1       code   0x000000    program   0x000002
                   .org_2       code   0x000004    program   0x000142
.config_2007_MULTIPLY 2 X 8 BIT_SHORT_CODE_4B       code   0x002007    program   0x000002
.config_2008_MULTIPLY 2 X 8 BIT_SHORT_CODE_4B       code   0x002008    program   0x000002



                              Program Memory Usage 
                               Start         End      
                           ---------   ---------      
                            0x000000    0x000000      
                            0x000004    0x0000a4      
                            0x002007    0x002008      
            164 out of 8455 program addresses used, program memory utilization is 1%



                              Symbols - Sorted by Name
                     Name    Address   Location    Storage File                     
                ---------  ---------  ---------  --------- ---------                
                bit_test1   0x000029    program     static C:\pic_projects\Multiplication 2 x 8 bit numbers\Multiply 2 x 8 bit_short_code_4bit_number.ASM
                bit_test2   0x000039    program     static C:\pic_projects\Multiplication 2 x 8 bit numbers\Multiply 2 x 8 bit_short_code_4bit_number.ASM
                bit_test3   0x000049    program     static C:\pic_projects\Multiplication 2 x 8 bit numbers\Multiply 2 x 8 bit_short_code_4bit_number.ASM
                bit_test4   0x000059    program     static C:\pic_projects\Multiplication 2 x 8 bit numbers\Multiply 2 x 8 bit_short_code_4bit_number.ASM
                bit_test5   0x000069    program     static C:\pic_projects\Multiplication 2 x 8 bit numbers\Multiply 2 x 8 bit_short_code_4bit_number.ASM
                bit_test6   0x000079    program     static C:\pic_projects\Multiplication 2 x 8 bit numbers\Multiply 2 x 8 bit_short_code_4bit_number.ASM
                bit_test7   0x000089    program     static C:\pic_projects\Multiplication 2 x 8 bit numbers\Multiply 2 x 8 bit_short_code_4bit_number.ASM
                     done   0x000099    program     static C:\pic_projects\Multiplication 2 x 8 bit numbers\Multiply 2 x 8 bit_short_code_4bit_number.ASM
                     main   0x000005    program     static C:\pic_projects\Multiplication 2 x 8 bit numbers\Multiply 2 x 8 bit_short_code_4bit_number.ASM
                main_loop   0x000010    program     static C:\pic_projects\Multiplication 2 x 8 bit numbers\Multiply 2 x 8 bit_short_code_4bit_number.ASM
                 put_z_hi   0x0000a1    program     static C:\pic_projects\Multiplication 2 x 8 bit numbers\Multiply 2 x 8 bit_short_code_4bit_number.ASM
              wait_stable   0x000009    program     static C:\pic_projects\Multiplication 2 x 8 bit numbers\Multiply 2 x 8 bit_short_code_4bit_number.ASM



                              Symbols - Sorted by Address
                     Name    Address   Location    Storage File                     
                ---------  ---------  ---------  --------- ---------                
                     main   0x000005    program     static C:\pic_projects\Multiplication 2 x 8 bit numbers\Multiply 2 x 8 bit_short_code_4bit_number.ASM
              wait_stable   0x000009    program     static C:\pic_projects\Multiplication 2 x 8 bit numbers\Multiply 2 x 8 bit_short_code_4bit_number.ASM
                main_loop   0x000010    program     static C:\pic_projects\Multiplication 2 x 8 bit numbers\Multiply 2 x 8 bit_short_code_4bit_number.ASM
                bit_test1   0x000029    program     static C:\pic_projects\Multiplication 2 x 8 bit numbers\Multiply 2 x 8 bit_short_code_4bit_number.ASM
                bit_test2   0x000039    program     static C:\pic_projects\Multiplication 2 x 8 bit numbers\Multiply 2 x 8 bit_short_code_4bit_number.ASM
                bit_test3   0x000049    program     static C:\pic_projects\Multiplication 2 x 8 bit numbers\Multiply 2 x 8 bit_short_code_4bit_number.ASM
                bit_test4   0x000059    program     static C:\pic_projects\Multiplication 2 x 8 bit numbers\Multiply 2 x 8 bit_short_code_4bit_number.ASM
                bit_test5   0x000069    program     static C:\pic_projects\Multiplication 2 x 8 bit numbers\Multiply 2 x 8 bit_short_code_4bit_number.ASM
                bit_test6   0x000079    program     static C:\pic_projects\Multiplication 2 x 8 bit numbers\Multiply 2 x 8 bit_short_code_4bit_number.ASM
                bit_test7   0x000089    program     static C:\pic_projects\Multiplication 2 x 8 bit numbers\Multiply 2 x 8 bit_short_code_4bit_number.ASM
                     done   0x000099    program     static C:\pic_projects\Multiplication 2 x 8 bit numbers\Multiply 2 x 8 bit_short_code_4bit_number.ASM
                 put_z_hi   0x0000a1    program     static C:\pic_projects\Multiplication 2 x 8 bit numbers\Multiply 2 x 8 bit_short_code_4bit_number.ASM


