MPLINK 4.38, Linker
Linker Map File - Created Thu Apr 28 09:03:36 2011

                                 Section Info
                  Section       Type    Address   Location Size(Bytes)
                ---------  ---------  ---------  ---------  ---------
                   .org_0       code   0x000000    program   0x000000
                   .org_1       code   0x000000    program   0x000002
                   .org_2       code   0x000004    program   0x0000a4
.config_2007_MULTIPLY 2 X 8 BIT_SHORT_CODE.O       code   0x002007    program   0x000002
.config_2008_MULTIPLY 2 X 8 BIT_SHORT_CODE.O       code   0x002008    program   0x000002



                              Program Memory Usage 
                               Start         End      
                           ---------   ---------      
                            0x000000    0x000000      
                            0x000004    0x000055      
                            0x002007    0x002008      
            85 out of 8455 program addresses used, program memory utilization is 1%



                              Symbols - Sorted by Name
                     Name    Address   Location    Storage File                     
                ---------  ---------  ---------  --------- ---------                
                adding_hi   0x00004a    program     static C:\pic_projects\Multiplication 2 x 8 bit numbers\Multiply 2 x 8 bit_short_code.ASM
                adding_lo   0x000044    program     static C:\pic_projects\Multiplication 2 x 8 bit numbers\Multiply 2 x 8 bit_short_code.ASM
                  all_end   0x000055    program     static C:\pic_projects\Multiplication 2 x 8 bit numbers\Multiply 2 x 8 bit_short_code.ASM
                     main   0x000005    program     static C:\pic_projects\Multiplication 2 x 8 bit numbers\Multiply 2 x 8 bit_short_code.ASM
                main_loop   0x000010    program     static C:\pic_projects\Multiplication 2 x 8 bit numbers\Multiply 2 x 8 bit_short_code.ASM
                   shifts   0x000030    program     static C:\pic_projects\Multiplication 2 x 8 bit numbers\Multiply 2 x 8 bit_short_code.ASM
              wait_stable   0x000009    program     static C:\pic_projects\Multiplication 2 x 8 bit numbers\Multiply 2 x 8 bit_short_code.ASM
                z_lo_loop   0x000026    program     static C:\pic_projects\Multiplication 2 x 8 bit numbers\Multiply 2 x 8 bit_short_code.ASM



                              Symbols - Sorted by Address
                     Name    Address   Location    Storage File                     
                ---------  ---------  ---------  --------- ---------                
                     main   0x000005    program     static C:\pic_projects\Multiplication 2 x 8 bit numbers\Multiply 2 x 8 bit_short_code.ASM
              wait_stable   0x000009    program     static C:\pic_projects\Multiplication 2 x 8 bit numbers\Multiply 2 x 8 bit_short_code.ASM
                main_loop   0x000010    program     static C:\pic_projects\Multiplication 2 x 8 bit numbers\Multiply 2 x 8 bit_short_code.ASM
                z_lo_loop   0x000026    program     static C:\pic_projects\Multiplication 2 x 8 bit numbers\Multiply 2 x 8 bit_short_code.ASM
                   shifts   0x000030    program     static C:\pic_projects\Multiplication 2 x 8 bit numbers\Multiply 2 x 8 bit_short_code.ASM
                adding_lo   0x000044    program     static C:\pic_projects\Multiplication 2 x 8 bit numbers\Multiply 2 x 8 bit_short_code.ASM
                adding_hi   0x00004a    program     static C:\pic_projects\Multiplication 2 x 8 bit numbers\Multiply 2 x 8 bit_short_code.ASM
                  all_end   0x000055    program     static C:\pic_projects\Multiplication 2 x 8 bit numbers\Multiply 2 x 8 bit_short_code.ASM


